{
  "address": "0x80A2e07133348786289932c077e15100495c17F8",
  "abi": [
    {
      "inputs": [],
      "stateMutability": "nonpayable",
      "type": "constructor"
    },
    {
      "inputs": [],
      "name": "Max_NFT_Limit_Reached",
      "type": "error"
    },
    {
      "inputs": [],
      "name": "NFT_Not_Owned",
      "type": "error"
    },
    {
      "anonymous": false,
      "inputs": [
        {
          "indexed": true,
          "internalType": "address",
          "name": "owner",
          "type": "address"
        },
        {
          "indexed": true,
          "internalType": "address",
          "name": "approved",
          "type": "address"
        },
        {
          "indexed": true,
          "internalType": "uint256",
          "name": "tokenId",
          "type": "uint256"
        }
      ],
      "name": "Approval",
      "type": "event"
    },
    {
      "anonymous": false,
      "inputs": [
        {
          "indexed": true,
          "internalType": "address",
          "name": "owner",
          "type": "address"
        },
        {
          "indexed": true,
          "internalType": "address",
          "name": "operator",
          "type": "address"
        },
        {
          "indexed": false,
          "internalType": "bool",
          "name": "approved",
          "type": "bool"
        }
      ],
      "name": "ApprovalForAll",
      "type": "event"
    },
    {
      "anonymous": false,
      "inputs": [
        {
          "indexed": true,
          "internalType": "address",
          "name": "from",
          "type": "address"
        },
        {
          "indexed": true,
          "internalType": "address",
          "name": "to",
          "type": "address"
        },
        {
          "indexed": true,
          "internalType": "uint256",
          "name": "tokenId",
          "type": "uint256"
        }
      ],
      "name": "Transfer",
      "type": "event"
    },
    {
      "inputs": [
        {
          "internalType": "address",
          "name": "to",
          "type": "address"
        },
        {
          "internalType": "uint256",
          "name": "tokenId",
          "type": "uint256"
        }
      ],
      "name": "approve",
      "outputs": [],
      "stateMutability": "nonpayable",
      "type": "function"
    },
    {
      "inputs": [
        {
          "internalType": "address",
          "name": "owner",
          "type": "address"
        }
      ],
      "name": "balanceOf",
      "outputs": [
        {
          "internalType": "uint256",
          "name": "",
          "type": "uint256"
        }
      ],
      "stateMutability": "view",
      "type": "function"
    },
    {
      "inputs": [
        {
          "internalType": "uint256",
          "name": "tokenId",
          "type": "uint256"
        }
      ],
      "name": "getApproved",
      "outputs": [
        {
          "internalType": "address",
          "name": "",
          "type": "address"
        }
      ],
      "stateMutability": "view",
      "type": "function"
    },
    {
      "inputs": [
        {
          "internalType": "address",
          "name": "owner",
          "type": "address"
        },
        {
          "internalType": "address",
          "name": "operator",
          "type": "address"
        }
      ],
      "name": "isApprovedForAll",
      "outputs": [
        {
          "internalType": "bool",
          "name": "",
          "type": "bool"
        }
      ],
      "stateMutability": "view",
      "type": "function"
    },
    {
      "inputs": [
        {
          "internalType": "address",
          "name": "to",
          "type": "address"
        },
        {
          "internalType": "string",
          "name": "tokenURI",
          "type": "string"
        }
      ],
      "name": "mint",
      "outputs": [],
      "stateMutability": "nonpayable",
      "type": "function"
    },
    {
      "inputs": [],
      "name": "name",
      "outputs": [
        {
          "internalType": "string",
          "name": "",
          "type": "string"
        }
      ],
      "stateMutability": "view",
      "type": "function"
    },
    {
      "inputs": [
        {
          "internalType": "uint256",
          "name": "tokenId",
          "type": "uint256"
        }
      ],
      "name": "ownerOf",
      "outputs": [
        {
          "internalType": "address",
          "name": "",
          "type": "address"
        }
      ],
      "stateMutability": "view",
      "type": "function"
    },
    {
      "inputs": [
        {
          "internalType": "address",
          "name": "from",
          "type": "address"
        },
        {
          "internalType": "address",
          "name": "to",
          "type": "address"
        },
        {
          "internalType": "uint256",
          "name": "tokenId",
          "type": "uint256"
        }
      ],
      "name": "safeTransferFrom",
      "outputs": [],
      "stateMutability": "nonpayable",
      "type": "function"
    },
    {
      "inputs": [
        {
          "internalType": "address",
          "name": "from",
          "type": "address"
        },
        {
          "internalType": "address",
          "name": "to",
          "type": "address"
        },
        {
          "internalType": "uint256",
          "name": "tokenId",
          "type": "uint256"
        },
        {
          "internalType": "bytes",
          "name": "data",
          "type": "bytes"
        }
      ],
      "name": "safeTransferFrom",
      "outputs": [],
      "stateMutability": "nonpayable",
      "type": "function"
    },
    {
      "inputs": [
        {
          "internalType": "address",
          "name": "operator",
          "type": "address"
        },
        {
          "internalType": "bool",
          "name": "approved",
          "type": "bool"
        }
      ],
      "name": "setApprovalForAll",
      "outputs": [],
      "stateMutability": "nonpayable",
      "type": "function"
    },
    {
      "inputs": [
        {
          "internalType": "bytes4",
          "name": "interfaceId",
          "type": "bytes4"
        }
      ],
      "name": "supportsInterface",
      "outputs": [
        {
          "internalType": "bool",
          "name": "",
          "type": "bool"
        }
      ],
      "stateMutability": "view",
      "type": "function"
    },
    {
      "inputs": [],
      "name": "symbol",
      "outputs": [
        {
          "internalType": "string",
          "name": "",
          "type": "string"
        }
      ],
      "stateMutability": "view",
      "type": "function"
    },
    {
      "inputs": [
        {
          "internalType": "uint256",
          "name": "tokenId",
          "type": "uint256"
        }
      ],
      "name": "tokenURI",
      "outputs": [
        {
          "internalType": "string",
          "name": "",
          "type": "string"
        }
      ],
      "stateMutability": "view",
      "type": "function"
    },
    {
      "inputs": [
        {
          "internalType": "address",
          "name": "from",
          "type": "address"
        },
        {
          "internalType": "address",
          "name": "to",
          "type": "address"
        },
        {
          "internalType": "uint256",
          "name": "tokenId",
          "type": "uint256"
        }
      ],
      "name": "transferFrom",
      "outputs": [],
      "stateMutability": "nonpayable",
      "type": "function"
    },
    {
      "inputs": [
        {
          "internalType": "uint256",
          "name": "tokenId",
          "type": "uint256"
        },
        {
          "internalType": "string",
          "name": "tokenURI",
          "type": "string"
        }
      ],
      "name": "updateTokenURI",
      "outputs": [],
      "stateMutability": "nonpayable",
      "type": "function"
    }
  ],
  "transactionHash": "0x421d97de7c99075c7fee2364e7a91eef9e1e15402f88410649443b60ddae950e",
  "args": [],
  "numDeployments": 1,
  "solcInputHash": "a2b98fa0d1f89cca79a27352bddaf684",
  "bytecode": "0x60806040523480156200001157600080fd5b506040518060400160405280600781526020017f596f75724e4654000000000000000000000000000000000000000000000000008152506040518060400160405280600481526020017f594e465400000000000000000000000000000000000000000000000000000000815250816000908051906020019062000096929190620000b8565b508060019080519060200190620000af929190620000b8565b505050620001cd565b828054620000c69062000197565b90600052602060002090601f016020900481019282620000ea576000855562000136565b82601f106200010557805160ff191683800117855562000136565b8280016001018555821562000136579182015b828111156200013557825182559160200191906001019062000118565b5b50905062000145919062000149565b5090565b5b80821115620001645760008160009055506001016200014a565b5090565b7f4e487b7100000000000000000000000000000000000000000000000000000000600052602260045260246000fd5b60006002820490506001821680620001b057607f821691505b60208210811415620001c757620001c662000168565b5b50919050565b6129d080620001dd6000396000f3fe608060405234801561001057600080fd5b50600436106100f55760003560e01c80636352211e11610097578063b88d4fde11610066578063b88d4fde14610282578063c87b56dd1461029e578063d0def521146102ce578063e985e9c5146102ea576100f5565b80636352211e146101e857806370a082311461021857806395d89b4114610248578063a22cb46514610266576100f5565b8063095ea7b3116100d3578063095ea7b31461017857806318e97fd11461019457806323b872dd146101b057806342842e0e146101cc576100f5565b806301ffc9a7146100fa57806306fdde031461012a578063081812fc14610148575b600080fd5b610114600480360381019061010f9190611944565b61031a565b604051610121919061198c565b60405180910390f35b6101326103fc565b60405161013f9190611a40565b60405180910390f35b610162600480360381019061015d9190611a98565b61048e565b60405161016f9190611b06565b60405180910390f35b610192600480360381019061018d9190611b4d565b6104d4565b005b6101ae60048036038101906101a99190611cc2565b6105ec565b005b6101ca60048036038101906101c59190611d1e565b610667565b005b6101e660048036038101906101e19190611d1e565b6106c7565b005b61020260048036038101906101fd9190611a98565b6106e7565b60405161020f9190611b06565b60405180910390f35b610232600480360381019061022d9190611d71565b610799565b60405161023f9190611dad565b60405180910390f35b610250610851565b60405161025d9190611a40565b60405180910390f35b610280600480360381019061027b9190611df4565b6108e3565b005b61029c60048036038101906102979190611ed5565b6108f9565b005b6102b860048036038101906102b39190611a98565b61095b565b6040516102c59190611a40565b60405180910390f35b6102e860048036038101906102e39190611f58565b610a6e565b005b61030460048036038101906102ff9190611fb4565b610ae4565b604051610311919061198c565b60405180910390f35b60007f80ac58cd000000000000000000000000000000000000000000000000000000007bffffffffffffffffffffffffffffffffffffffffffffffffffffffff1916827bffffffffffffffffffffffffffffffffffffffffffffffffffffffff191614806103e557507f5b5e139f000000000000000000000000000000000000000000000000000000007bffffffffffffffffffffffffffffffffffffffffffffffffffffffff1916827bffffffffffffffffffffffffffffffffffffffffffffffffffffffff1916145b806103f557506103f482610b78565b5b9050919050565b60606000805461040b90612023565b80601f016020809104026020016040519081016040528092919081815260200182805461043790612023565b80156104845780601f1061045957610100808354040283529160200191610484565b820191906000526020600020905b81548152906001019060200180831161046757829003601f168201915b5050505050905090565b600061049982610be2565b6004600083815260200190815260200160002060009054906101000a900473ffffffffffffffffffffffffffffffffffffffff169050919050565b60006104df826106e7565b90508073ffffffffffffffffffffffffffffffffffffffff168373ffffffffffffffffffffffffffffffffffffffff161415610550576040517f08c379a0000000000000000000000000000000000000000000000000000000008152600401610547906120c7565b60405180910390fd5b8073ffffffffffffffffffffffffffffffffffffffff1661056f610c2d565b73ffffffffffffffffffffffffffffffffffffffff16148061059e575061059d81610598610c2d565b610ae4565b5b6105dd576040517f08c379a00000000000000000000000000000000000000000000000000000000081526004016105d490612159565b60405180910390fd5b6105e78383610c35565b505050565b3373ffffffffffffffffffffffffffffffffffffffff1661060c836106e7565b73ffffffffffffffffffffffffffffffffffffffff1614610659576040517f7cc7793000000000000000000000000000000000000000000000000000000000815260040160405180910390fd5b6106638282610cee565b5050565b610678610672610c2d565b82610d62565b6106b7576040517f08c379a00000000000000000000000000000000000000000000000000000000081526004016106ae906121eb565b60405180910390fd5b6106c2838383610df7565b505050565b6106e2838383604051806020016040528060008152506108f9565b505050565b6000806002600084815260200190815260200160002060009054906101000a900473ffffffffffffffffffffffffffffffffffffffff169050600073ffffffffffffffffffffffffffffffffffffffff168173ffffffffffffffffffffffffffffffffffffffff161415610790576040517f08c379a000000000000000000000000000000000000000000000000000000000815260040161078790612257565b60405180910390fd5b80915050919050565b60008073ffffffffffffffffffffffffffffffffffffffff168273ffffffffffffffffffffffffffffffffffffffff16141561080a576040517f08c379a0000000000000000000000000000000000000000000000000000000008152600401610801906122e9565b60405180910390fd5b600360008373ffffffffffffffffffffffffffffffffffffffff1673ffffffffffffffffffffffffffffffffffffffff168152602001908152602001600020549050919050565b60606001805461086090612023565b80601f016020809104026020016040519081016040528092919081815260200182805461088c90612023565b80156108d95780601f106108ae576101008083540402835291602001916108d9565b820191906000526020600020905b8154815290600101906020018083116108bc57829003601f168201915b5050505050905090565b6108f56108ee610c2d565b838361105e565b5050565b61090a610904610c2d565b83610d62565b610949576040517f08c379a0000000000000000000000000000000000000000000000000000000008152600401610940906121eb565b60405180910390fd5b610955848484846111cb565b50505050565b606061096682610be2565b600060066000848152602001908152602001600020805461098690612023565b80601f01602080910402602001604051908101604052809291908181526020018280546109b290612023565b80156109ff5780601f106109d4576101008083540402835291602001916109ff565b820191906000526020600020905b8154815290600101906020018083116109e257829003601f168201915b505050505090506000610a10611227565b9050600081511415610a26578192505050610a69565b600082511115610a5b578082604051602001610a43929190612345565b60405160208183030381529060405292505050610a69565b610a648461123e565b925050505b919050565b610bb8610a7b60076112a6565b1415610ab3576040517f5b7ff82700000000000000000000000000000000000000000000000000000000815260040160405180910390fd5b610abd60076112b4565b6000610ac960076112a6565b9050610ad583826112ca565b610adf8183610cee565b505050565b6000600560008473ffffffffffffffffffffffffffffffffffffffff1673ffffffffffffffffffffffffffffffffffffffff16815260200190815260200160002060008373ffffffffffffffffffffffffffffffffffffffff1673ffffffffffffffffffffffffffffffffffffffff16815260200190815260200160002060009054906101000a900460ff16905092915050565b60007f01ffc9a7000000000000000000000000000000000000000000000000000000007bffffffffffffffffffffffffffffffffffffffffffffffffffffffff1916827bffffffffffffffffffffffffffffffffffffffffffffffffffffffff1916149050919050565b610beb816114a4565b610c2a576040517f08c379a0000000000000000000000000000000000000000000000000000000008152600401610c2190612257565b60405180910390fd5b50565b600033905090565b816004600083815260200190815260200160002060006101000a81548173ffffffffffffffffffffffffffffffffffffffff021916908373ffffffffffffffffffffffffffffffffffffffff160217905550808273ffffffffffffffffffffffffffffffffffffffff16610ca8836106e7565b73ffffffffffffffffffffffffffffffffffffffff167f8c5be1e5ebec7d5bd14f71427d1e84f3dd0314c0f7b2291e5b200ac8c7c3b92560405160405180910390a45050565b610cf7826114a4565b610d36576040517f08c379a0000000000000000000000000000000000000000000000000000000008152600401610d2d906123db565b60405180910390fd5b80600660008481526020019081526020016000209080519060200190610d5d929190611835565b505050565b600080610d6e836106e7565b90508073ffffffffffffffffffffffffffffffffffffffff168473ffffffffffffffffffffffffffffffffffffffff161480610db05750610daf8185610ae4565b5b80610dee57508373ffffffffffffffffffffffffffffffffffffffff16610dd68461048e565b73ffffffffffffffffffffffffffffffffffffffff16145b91505092915050565b8273ffffffffffffffffffffffffffffffffffffffff16610e17826106e7565b73ffffffffffffffffffffffffffffffffffffffff1614610e6d576040517f08c379a0000000000000000000000000000000000000000000000000000000008152600401610e649061246d565b60405180910390fd5b600073ffffffffffffffffffffffffffffffffffffffff168273ffffffffffffffffffffffffffffffffffffffff161415610edd576040517f08c379a0000000000000000000000000000000000000000000000000000000008152600401610ed4906124ff565b60405180910390fd5b610ee8838383611510565b610ef3600082610c35565b6001600360008573ffffffffffffffffffffffffffffffffffffffff1673ffffffffffffffffffffffffffffffffffffffff1681526020019081526020016000206000828254610f43919061254e565b925050819055506001600360008473ffffffffffffffffffffffffffffffffffffffff1673ffffffffffffffffffffffffffffffffffffffff1681526020019081526020016000206000828254610f9a9190612582565b92505081905550816002600083815260200190815260200160002060006101000a81548173ffffffffffffffffffffffffffffffffffffffff021916908373ffffffffffffffffffffffffffffffffffffffff160217905550808273ffffffffffffffffffffffffffffffffffffffff168473ffffffffffffffffffffffffffffffffffffffff167fddf252ad1be2c89b69c2b068fc378daa952ba7f163c4a11628f55a4df523b3ef60405160405180910390a4611059838383611515565b505050565b8173ffffffffffffffffffffffffffffffffffffffff168373ffffffffffffffffffffffffffffffffffffffff1614156110cd576040517f08c379a00000000000000000000000000000000000000000000000000000000081526004016110c490612624565b60405180910390fd5b80600560008573ffffffffffffffffffffffffffffffffffffffff1673ffffffffffffffffffffffffffffffffffffffff16815260200190815260200160002060008473ffffffffffffffffffffffffffffffffffffffff1673ffffffffffffffffffffffffffffffffffffffff16815260200190815260200160002060006101000a81548160ff0219169083151502179055508173ffffffffffffffffffffffffffffffffffffffff168373ffffffffffffffffffffffffffffffffffffffff167f17307eab39ab6107e8899845ad3d59bd9653f200f220920489ca2b5937696c31836040516111be919061198c565b60405180910390a3505050565b6111d6848484610df7565b6111e28484848461151a565b611221576040517f08c379a0000000000000000000000000000000000000000000000000000000008152600401611218906126b6565b60405180910390fd5b50505050565b606060405180602001604052806000815250905090565b606061124982610be2565b6000611253611227565b90506000815111611273576040518060200160405280600081525061129e565b8061127d846116b1565b60405160200161128e929190612345565b6040516020818303038152906040525b915050919050565b600081600001549050919050565b6001816000016000828254019250508190555050565b600073ffffffffffffffffffffffffffffffffffffffff168273ffffffffffffffffffffffffffffffffffffffff16141561133a576040517f08c379a000000000000000000000000000000000000000000000000000000000815260040161133190612722565b60405180910390fd5b611343816114a4565b15611383576040517f08c379a000000000000000000000000000000000000000000000000000000000815260040161137a9061278e565b60405180910390fd5b61138f60008383611510565b6001600360008473ffffffffffffffffffffffffffffffffffffffff1673ffffffffffffffffffffffffffffffffffffffff16815260200190815260200160002060008282546113df9190612582565b92505081905550816002600083815260200190815260200160002060006101000a81548173ffffffffffffffffffffffffffffffffffffffff021916908373ffffffffffffffffffffffffffffffffffffffff160217905550808273ffffffffffffffffffffffffffffffffffffffff16600073ffffffffffffffffffffffffffffffffffffffff167fddf252ad1be2c89b69c2b068fc378daa952ba7f163c4a11628f55a4df523b3ef60405160405180910390a46114a060008383611515565b5050565b60008073ffffffffffffffffffffffffffffffffffffffff166002600084815260200190815260200160002060009054906101000a900473ffffffffffffffffffffffffffffffffffffffff1673ffffffffffffffffffffffffffffffffffffffff1614159050919050565b505050565b505050565b600061153b8473ffffffffffffffffffffffffffffffffffffffff16611812565b156116a4578373ffffffffffffffffffffffffffffffffffffffff1663150b7a02611564610c2d565b8786866040518563ffffffff1660e01b81526004016115869493929190612803565b602060405180830381600087803b1580156115a057600080fd5b505af19250505080156115d157506040513d601f19601f820116820180604052508101906115ce9190612864565b60015b611654573d8060008114611601576040519150601f19603f3d011682016040523d82523d6000602084013e611606565b606091505b5060008151141561164c576040517f08c379a0000000000000000000000000000000000000000000000000000000008152600401611643906126b6565b60405180910390fd5b805181602001fd5b63150b7a0260e01b7bffffffffffffffffffffffffffffffffffffffffffffffffffffffff1916817bffffffffffffffffffffffffffffffffffffffffffffffffffffffff1916149150506116a9565b600190505b949350505050565b606060008214156116f9576040518060400160405280600181526020017f3000000000000000000000000000000000000000000000000000000000000000815250905061180d565b600082905060005b6000821461172b57808061171490612891565b915050600a826117249190612909565b9150611701565b60008167ffffffffffffffff81111561174757611746611b97565b5b6040519080825280601f01601f1916602001820160405280156117795781602001600182028036833780820191505090505b5090505b6000851461180657600182611792919061254e565b9150600a856117a1919061293a565b60306117ad9190612582565b60f81b8183815181106117c3576117c261296b565b5b60200101907effffffffffffffffffffffffffffffffffffffffffffffffffffffffffffff1916908160001a905350600a856117ff9190612909565b945061177d565b8093505050505b919050565b6000808273ffffffffffffffffffffffffffffffffffffffff163b119050919050565b82805461184190612023565b90600052602060002090601f01602090048101928261186357600085556118aa565b82601f1061187c57805160ff19168380011785556118aa565b828001600101855582156118aa579182015b828111156118a957825182559160200191906001019061188e565b5b5090506118b791906118bb565b5090565b5b808211156118d45760008160009055506001016118bc565b5090565b6000604051905090565b600080fd5b600080fd5b60007fffffffff0000000000000000000000000000000000000000000000000000000082169050919050565b611921816118ec565b811461192c57600080fd5b50565b60008135905061193e81611918565b92915050565b60006020828403121561195a576119596118e2565b5b60006119688482850161192f565b91505092915050565b60008115159050919050565b61198681611971565b82525050565b60006020820190506119a1600083018461197d565b92915050565b600081519050919050565b600082825260208201905092915050565b60005b838110156119e15780820151818401526020810190506119c6565b838111156119f0576000848401525b50505050565b6000601f19601f8301169050919050565b6000611a12826119a7565b611a1c81856119b2565b9350611a2c8185602086016119c3565b611a35816119f6565b840191505092915050565b60006020820190508181036000830152611a5a8184611a07565b905092915050565b6000819050919050565b611a7581611a62565b8114611a8057600080fd5b50565b600081359050611a9281611a6c565b92915050565b600060208284031215611aae57611aad6118e2565b5b6000611abc84828501611a83565b91505092915050565b600073ffffffffffffffffffffffffffffffffffffffff82169050919050565b6000611af082611ac5565b9050919050565b611b0081611ae5565b82525050565b6000602082019050611b1b6000830184611af7565b92915050565b611b2a81611ae5565b8114611b3557600080fd5b50565b600081359050611b4781611b21565b92915050565b60008060408385031215611b6457611b636118e2565b5b6000611b7285828601611b38565b9250506020611b8385828601611a83565b9150509250929050565b600080fd5b600080fd5b7f4e487b7100000000000000000000000000000000000000000000000000000000600052604160045260246000fd5b611bcf826119f6565b810181811067ffffffffffffffff82111715611bee57611bed611b97565b5b80604052505050565b6000611c016118d8565b9050611c0d8282611bc6565b919050565b600067ffffffffffffffff821115611c2d57611c2c611b97565b5b611c36826119f6565b9050602081019050919050565b82818337600083830152505050565b6000611c65611c6084611c12565b611bf7565b905082815260208101848484011115611c8157611c80611b92565b5b611c8c848285611c43565b509392505050565b600082601f830112611ca957611ca8611b8d565b5b8135611cb9848260208601611c52565b91505092915050565b60008060408385031215611cd957611cd86118e2565b5b6000611ce785828601611a83565b925050602083013567ffffffffffffffff811115611d0857611d076118e7565b5b611d1485828601611c94565b9150509250929050565b600080600060608486031215611d3757611d366118e2565b5b6000611d4586828701611b38565b9350506020611d5686828701611b38565b9250506040611d6786828701611a83565b9150509250925092565b600060208284031215611d8757611d866118e2565b5b6000611d9584828501611b38565b91505092915050565b611da781611a62565b82525050565b6000602082019050611dc26000830184611d9e565b92915050565b611dd181611971565b8114611ddc57600080fd5b50565b600081359050611dee81611dc8565b92915050565b60008060408385031215611e0b57611e0a6118e2565b5b6000611e1985828601611b38565b9250506020611e2a85828601611ddf565b9150509250929050565b600067ffffffffffffffff821115611e4f57611e4e611b97565b5b611e58826119f6565b9050602081019050919050565b6000611e78611e7384611e34565b611bf7565b905082815260208101848484011115611e9457611e93611b92565b5b611e9f848285611c43565b509392505050565b600082601f830112611ebc57611ebb611b8d565b5b8135611ecc848260208601611e65565b91505092915050565b60008060008060808587031215611eef57611eee6118e2565b5b6000611efd87828801611b38565b9450506020611f0e87828801611b38565b9350506040611f1f87828801611a83565b925050606085013567ffffffffffffffff811115611f4057611f3f6118e7565b5b611f4c87828801611ea7565b91505092959194509250565b60008060408385031215611f6f57611f6e6118e2565b5b6000611f7d85828601611b38565b925050602083013567ffffffffffffffff811115611f9e57611f9d6118e7565b5b611faa85828601611c94565b9150509250929050565b60008060408385031215611fcb57611fca6118e2565b5b6000611fd985828601611b38565b9250506020611fea85828601611b38565b9150509250929050565b7f4e487b7100000000000000000000000000000000000000000000000000000000600052602260045260246000fd5b6000600282049050600182168061203b57607f821691505b6020821081141561204f5761204e611ff4565b5b50919050565b7f4552433732313a20617070726f76616c20746f2063757272656e74206f776e6560008201527f7200000000000000000000000000000000000000000000000000000000000000602082015250565b60006120b16021836119b2565b91506120bc82612055565b604082019050919050565b600060208201905081810360008301526120e0816120a4565b9050919050565b7f4552433732313a20617070726f76652063616c6c6572206973206e6f7420746f60008201527f6b656e206f776e6572206e6f7220617070726f76656420666f7220616c6c0000602082015250565b6000612143603e836119b2565b915061214e826120e7565b604082019050919050565b6000602082019050818103600083015261217281612136565b9050919050565b7f4552433732313a2063616c6c6572206973206e6f7420746f6b656e206f776e6560008201527f72206e6f7220617070726f766564000000000000000000000000000000000000602082015250565b60006121d5602e836119b2565b91506121e082612179565b604082019050919050565b60006020820190508181036000830152612204816121c8565b9050919050565b7f4552433732313a20696e76616c696420746f6b656e2049440000000000000000600082015250565b60006122416018836119b2565b915061224c8261220b565b602082019050919050565b6000602082019050818103600083015261227081612234565b9050919050565b7f4552433732313a2061646472657373207a65726f206973206e6f74206120766160008201527f6c6964206f776e65720000000000000000000000000000000000000000000000602082015250565b60006122d36029836119b2565b91506122de82612277565b604082019050919050565b60006020820190508181036000830152612302816122c6565b9050919050565b600081905092915050565b600061231f826119a7565b6123298185612309565b93506123398185602086016119c3565b80840191505092915050565b60006123518285612314565b915061235d8284612314565b91508190509392505050565b7f45524337323155524953746f726167653a2055524920736574206f66206e6f6e60008201527f6578697374656e7420746f6b656e000000000000000000000000000000000000602082015250565b60006123c5602e836119b2565b91506123d082612369565b604082019050919050565b600060208201905081810360008301526123f4816123b8565b9050919050565b7f4552433732313a207472616e736665722066726f6d20696e636f72726563742060008201527f6f776e6572000000000000000000000000000000000000000000000000000000602082015250565b60006124576025836119b2565b9150612462826123fb565b604082019050919050565b600060208201905081810360008301526124868161244a565b9050919050565b7f4552433732313a207472616e7366657220746f20746865207a65726f2061646460008201527f7265737300000000000000000000000000000000000000000000000000000000602082015250565b60006124e96024836119b2565b91506124f48261248d565b604082019050919050565b60006020820190508181036000830152612518816124dc565b9050919050565b7f4e487b7100000000000000000000000000000000000000000000000000000000600052601160045260246000fd5b600061255982611a62565b915061256483611a62565b9250828210156125775761257661251f565b5b828203905092915050565b600061258d82611a62565b915061259883611a62565b9250827fffffffffffffffffffffffffffffffffffffffffffffffffffffffffffffffff038211156125cd576125cc61251f565b5b828201905092915050565b7f4552433732313a20617070726f766520746f2063616c6c657200000000000000600082015250565b600061260e6019836119b2565b9150612619826125d8565b602082019050919050565b6000602082019050818103600083015261263d81612601565b9050919050565b7f4552433732313a207472616e7366657220746f206e6f6e20455243373231526560008201527f63656976657220696d706c656d656e7465720000000000000000000000000000602082015250565b60006126a06032836119b2565b91506126ab82612644565b604082019050919050565b600060208201905081810360008301526126cf81612693565b9050919050565b7f4552433732313a206d696e7420746f20746865207a65726f2061646472657373600082015250565b600061270c6020836119b2565b9150612717826126d6565b602082019050919050565b6000602082019050818103600083015261273b816126ff565b9050919050565b7f4552433732313a20746f6b656e20616c7265616479206d696e74656400000000600082015250565b6000612778601c836119b2565b915061278382612742565b602082019050919050565b600060208201905081810360008301526127a78161276b565b9050919050565b600081519050919050565b600082825260208201905092915050565b60006127d5826127ae565b6127df81856127b9565b93506127ef8185602086016119c3565b6127f8816119f6565b840191505092915050565b60006080820190506128186000830187611af7565b6128256020830186611af7565b6128326040830185611d9e565b818103606083015261284481846127ca565b905095945050505050565b60008151905061285e81611918565b92915050565b60006020828403121561287a576128796118e2565b5b60006128888482850161284f565b91505092915050565b600061289c82611a62565b91507fffffffffffffffffffffffffffffffffffffffffffffffffffffffffffffffff8214156128cf576128ce61251f565b5b600182019050919050565b7f4e487b7100000000000000000000000000000000000000000000000000000000600052601260045260246000fd5b600061291482611a62565b915061291f83611a62565b92508261292f5761292e6128da565b5b828204905092915050565b600061294582611a62565b915061295083611a62565b9250826129605761295f6128da565b5b828206905092915050565b7f4e487b7100000000000000000000000000000000000000000000000000000000600052603260045260246000fdfea264697066735822122079fa05cc3da0de5a88cb5b52ada3f0e3e0b9945c25d823420097dfd0f8e1bfe964736f6c63430008090033",
  "devdoc": {
    "kind": "dev",
    "methods": {
      "approve(address,uint256)": {
        "details": "See {IERC721-approve}."
      },
      "balanceOf(address)": {
        "details": "See {IERC721-balanceOf}."
      },
      "getApproved(uint256)": {
        "details": "See {IERC721-getApproved}."
      },
      "isApprovedForAll(address,address)": {
        "details": "See {IERC721-isApprovedForAll}."
      },
      "name()": {
        "details": "See {IERC721Metadata-name}."
      },
      "ownerOf(uint256)": {
        "details": "See {IERC721-ownerOf}."
      },
      "safeTransferFrom(address,address,uint256)": {
        "details": "See {IERC721-safeTransferFrom}."
      },
      "safeTransferFrom(address,address,uint256,bytes)": {
        "details": "See {IERC721-safeTransferFrom}."
      },
      "setApprovalForAll(address,bool)": {
        "details": "See {IERC721-setApprovalForAll}."
      },
      "supportsInterface(bytes4)": {
        "details": "See {IERC165-supportsInterface}."
      },
      "symbol()": {
        "details": "See {IERC721Metadata-symbol}."
      },
      "tokenURI(uint256)": {
        "details": "See {IERC721Metadata-tokenURI}."
      },
      "transferFrom(address,address,uint256)": {
        "details": "See {IERC721-transferFrom}."
      }
    },
    "version": 1
  },
  "userdoc": {
    "kind": "user",
    "methods": {},
    "version": 1
  },
  "storageLayout": {
    "storage": [
      {
        "astId": 25,
        "contract": "contracts/YourNFT.sol:YourNFT",
        "label": "_name",
        "offset": 0,
        "slot": "0",
        "type": "t_string_storage"
      },
      {
        "astId": 27,
        "contract": "contracts/YourNFT.sol:YourNFT",
        "label": "_symbol",
        "offset": 0,
        "slot": "1",
        "type": "t_string_storage"
      },
      {
        "astId": 31,
        "contract": "contracts/YourNFT.sol:YourNFT",
        "label": "_owners",
        "offset": 0,
        "slot": "2",
        "type": "t_mapping(t_uint256,t_address)"
      },
      {
        "astId": 35,
        "contract": "contracts/YourNFT.sol:YourNFT",
        "label": "_balances",
        "offset": 0,
        "slot": "3",
        "type": "t_mapping(t_address,t_uint256)"
      },
      {
        "astId": 39,
        "contract": "contracts/YourNFT.sol:YourNFT",
        "label": "_tokenApprovals",
        "offset": 0,
        "slot": "4",
        "type": "t_mapping(t_uint256,t_address)"
      },
      {
        "astId": 45,
        "contract": "contracts/YourNFT.sol:YourNFT",
        "label": "_operatorApprovals",
        "offset": 0,
        "slot": "5",
        "type": "t_mapping(t_address,t_mapping(t_address,t_bool))"
      },
      {
        "astId": 1013,
        "contract": "contracts/YourNFT.sol:YourNFT",
        "label": "_tokenURIs",
        "offset": 0,
        "slot": "6",
        "type": "t_mapping(t_uint256,t_string_storage)"
      },
      {
        "astId": 1822,
        "contract": "contracts/YourNFT.sol:YourNFT",
        "label": "_tokenIds",
        "offset": 0,
        "slot": "7",
        "type": "t_struct(Counter)1475_storage"
      }
    ],
    "types": {
      "t_address": {
        "encoding": "inplace",
        "label": "address",
        "numberOfBytes": "20"
      },
      "t_bool": {
        "encoding": "inplace",
        "label": "bool",
        "numberOfBytes": "1"
      },
      "t_mapping(t_address,t_bool)": {
        "encoding": "mapping",
        "key": "t_address",
        "label": "mapping(address => bool)",
        "numberOfBytes": "32",
        "value": "t_bool"
      },
      "t_mapping(t_address,t_mapping(t_address,t_bool))": {
        "encoding": "mapping",
        "key": "t_address",
        "label": "mapping(address => mapping(address => bool))",
        "numberOfBytes": "32",
        "value": "t_mapping(t_address,t_bool)"
      },
      "t_mapping(t_address,t_uint256)": {
        "encoding": "mapping",
        "key": "t_address",
        "label": "mapping(address => uint256)",
        "numberOfBytes": "32",
        "value": "t_uint256"
      },
      "t_mapping(t_uint256,t_address)": {
        "encoding": "mapping",
        "key": "t_uint256",
        "label": "mapping(uint256 => address)",
        "numberOfBytes": "32",
        "value": "t_address"
      },
      "t_mapping(t_uint256,t_string_storage)": {
        "encoding": "mapping",
        "key": "t_uint256",
        "label": "mapping(uint256 => string)",
        "numberOfBytes": "32",
        "value": "t_string_storage"
      },
      "t_string_storage": {
        "encoding": "bytes",
        "label": "string",
        "numberOfBytes": "32"
      },
      "t_struct(Counter)1475_storage": {
        "encoding": "inplace",
        "label": "struct Counters.Counter",
        "members": [
          {
            "astId": 1474,
            "contract": "contracts/YourNFT.sol:YourNFT",
            "label": "_value",
            "offset": 0,
            "slot": "0",
            "type": "t_uint256"
          }
        ],
        "numberOfBytes": "32"
      },
      "t_uint256": {
        "encoding": "inplace",
        "label": "uint256",
        "numberOfBytes": "32"
      }
    }
  }
}